{
    "contractName": "Token",
    "abi": [
        {
            "inputs": [],
            "stateMutability": "nonpayable",
            "type": "constructor"
        },
        {
            "inputs": [],
            "name": "changeCount",
            "outputs": [
                {
                    "internalType": "uint256",
                    "name": "",
                    "type": "uint256"
                }
            ],
            "stateMutability": "nonpayable",
            "type": "function"
        },
        {
            "inputs": [],
            "name": "getCount",
            "outputs": [
                {
                    "internalType": "uint256",
                    "name": "",
                    "type": "uint256"
                }
            ],
            "stateMutability": "view",
            "type": "function"
        }
    ],
    "bytecode": "608060405234801561001057600080fd5b506000805560c5806100236000396000f3fe6080604052348015600f57600080fd5b506004361060325760003560e01c8063a87d942c146037578063f35f644714604d575b600080fd5b6000545b60405190815260200160405180910390f35b603b600080548180605c836069565b9190505550600054905090565b6000600019821415608857634e487b7160e01b81526011600452602481fd5b506001019056fea2646970667358221220d364682fb06143791e430c86c5b3ac253a110251e34f474b4da31bd3c53a2f8c64736f6c63430008040033",
    "sourcePath": "/home/notthatsundar/PoLI/token.sol",
    "compiler": {
        "name": "solc",
        "version": "0.8.4+commit.c7e474f2"
    },
    "functionHashes": {
        "changeCount()": "f35f6447",
        "getCount()": "a87d942c"
    },
    "gasEstimates": {
        "creation": {
            "codeDepositCost": "39400",
            "executionCost": "5099",
            "totalCost": "44499"
        },
        "external": {
            "changeCount()": "21880",
            "getCount()": "947"
        }
    }
}